:020000042000DA
:10000000B711008093810180371200001302028033
:10001000B742008013810200371500201305451EEA
:100020007310553073102034EF1040263714002021
:100030001304043B0325040013044400E7000500F7
:100040006FF05FFFEF00807A6F0040006F000000EC
:10005000130101FD232611022324A1022322B10250
:100060002320C102232ED100232CE1001305000020
:10007000232AA10003254101832581026352B50A89
:10008000130500002328A100032501018325410257
:100090006350B508032501022324A10003250101B3
:1000A0002322A1000325410183254102EF104004D2
:1000B000832541001306050003258100B385C50093
:1000C000939635002326D100B305D50003A505007E
:1000D00083A545000326C101B306D60003A606008A
:1000E00083A64600EF00101E8326C100138605007C
:1000F00083258101B385D50023A2C50023A0A500D7
:1001000003250101130515002328A1006FF0DFF777
:100110000325410113051500232AA1006FF09FF567
:0C0120008320C10213010103678000006E
:10012C00130101FB23261104832201052324A104BE
:10013C002322B104232ED102232CC102232AF10243
:10014C002328E102232601032324110313050000B5
:10015C002322A10203254102832581046354B50E99
:10016C00130500002320A10203250102832541046D
:10017C006352B50C032581032328A1000325C10379
:10018C002326A1000325C1022324A100032501027B
:10019C002322A1000325410283254104EF00907422
:1001AC0083264100032681008325C1001307050027
:1001BC0003250101B386E60093963600232ED10069
:1001CC00B306D60003A6060083A64600EF00904CAB
:1001DC008326C101232AA100232CB100032501038E
:1001EC008325410303268102B306D60003A606002D
:1001FC0083A64600EF00104A1306050003254101B3
:10020C009386050083258101EF00100B8326C10125
:10021C001386050083250105B385D50023A2C500EF
:10022C0023A0A50003250102130515002320A1021C
:10023C006FF09FF303254102130515002322A10241
:10024C006FF05FF18320C10413010105678000008A
:10025C00130101FC232E1102232CA102232AB1022B
:10026C002328C1022326D102130500002324A10256
:10027C000325810283258103635CB50A1305000005
:10028C002322A1020325410283254103635AB508A9
:10029C00032501032326A100032541022328A100E5
:1002AC0003258102232AA10083254103EF009063DB
:1002BC008325C10013060500032501013306C50083
:1002CC0013163600B385C50003A605002320C10212
:1002DC0083A54500232EB1008325C102232CB10038
:1002EC0083258103EF001060832641018325810162
:1002FC000326C1011307050003250102B386E6009E
:10030C0093963600B385D50023A2C50023A0A50083
:10031C0003254102130515002322A1026FF09FF65D
:10032C0003258102130515002324A1026FF05FF44D
:0C033C008320C10313010104678000004E
:10034800130101FD232611022322A1022320B10259
:10035800232EC100232CD10013050000232AA1005D
:100368000325410183254102635CB508130500009C
:100378002328A1000325010183250102635AB5063C
:100388000325C1012326A100032501012324A1007F
:100398000325410183250102EF00105583258100C3
:1003A800130605000325C100B385C50093963500E3
:1003B800B305D50003A5050083A5450003268101E3
:1003C800B306D60003A6060083A64600EF00104D2C
:1003D80063080500130500002324A1026F00C00272
:1003E80003250101130515002328A1006FF09FF8CC
:1003F8000325410113051500232AA1006FF05FF6BC
:10040800130510002324A102032581028320C102C1
:080418001301010367800000DD
:10042000130101FA232E1104232CA104232AB10461
:100430002328C1042326D1042324E1042322F10428
:10044000130500002320A104032501048325810551
:10045000635CB50613050000232EA1020325C1032A
:1004600083250105635AB50403254104232AA1020B
:100470000325C1032328A1020325010483250105C7
:10048000EF001047832501031306050003254103F0
:10049000B385C50093953500B305B500130500007D
:1004A00023A2A50023A0A5000325C1031305150061
:1004B000232EA1026FF09FFA0325010413051500F6
:1004C0002320A1046FF05FF8130500002320A1048E
:1004D00003250104832581056358B5141305000025
:1004E000232EA1020325C103832501056356B512FE
:1004F00013050000232CA102032581038325410558
:100500006354B5100325C1042320A10003258103F2
:100510002322A10003250104232AA10083254105EC
:10052000EF00103D8325010013060500032541005F
:100530003306C50013163600B385C50003A60500B3
:100540002328C10083A545002326B100832581040B
:100550002324B1008325C103232EB1008325010587
:10056000232CB100EF00D038032681008325C10081
:100570008326C1011307050003250101B386E600A8
:1005800093963600B306D60003A6060083A646005F
:10059000EF00101113060500032541012320C102BD
:1005A00013860500832581012322C102032641040D
:1005B0002324C102EF00D0338325C10103260102A9
:1005C000832641021307050003258102B385E50058
:1005D00093953500B305B5002326B10203A50500A8
:1005E00083A54500EF00004E138605008325C10258
:1005F00023A2C50023A0A500032581031305150030
:10060000232CA1026FF05FEF0325C1031305150032
:10061000232EA1026FF01FED032501041305150021
:100620002320A1046FF0DFEA8320C1051301010636
:0406300067800000DF
:10063400130101FF232611002324A1002322B1006A
:100644000325810083254100EF00502A131535004E
:10065400EF0090502320A100032501008320C10056
:08066400130101016780000091
:10066C00130101FE232E1100232CA10083258101EF
:10067C0013850500EFF05FFB232AA1001305000092
:10068C002328A1000325010183258101635AB508A4
:10069C00130500002326A1000325C1008325810139
:1006AC006358B506032501018325C1002320B10041
:1006BC00B345B500B335B0009385F5FF3706F03F71
:1006CC00B3F5C5002324B100832541012322B100D9
:1006DC0083258101EF0010210326010083254100B1
:1006EC0093060500032581003306D6001316360049
:1006FC00B385C50023A2A5001305000023A0A50007
:10070C000325C100130515002326A1006FF0DFF8A7
:10071C0003250101130515002328A1006FF09FF696
:10072C00032541018320C1011301010267800000F0
:10073C00130101FE232E1100232CA100232AB1004A
:10074C002328C100130500002326A1000325C100A6
:10075C0083258101635CB5060325C1006318050080
:10076C00130500002322A1002320A1000325410131
:10077C008325C100939535003305B50083254500CD
:10078C0003250500032601018326C100939636003C
:10079C00B306D60003A6060083A64600EF00806FC2
:1007AC0013060500938605000325010083254100EF
:1007BC00EF0080302322B1002320A1000325C100CB
:1007CC00130515002326A1006FF05FF80325010027
:1007DC00832541008320C1011301010267800000C1
:1007EC00130101E8232E111613050000232CA1027E
:1007FC00232CA116B705F03F232EB102232AB116E4
:10080C002328A116370600402324C1022326C11633
:10081C002324A11637061040232AC1002322C11617
:10082C002320A116370608402328C100232EC1140B
:10083C00232CA114370600C0232AC1142328A11489
:10084C002326B1142324A114130530002320A10462
:10085C009305011613068114EFF09FED1386050026
:10086C00832581032322C1142320A1141305810F96
:10087C002326A10213068004EF00500A03268102EE
:10088C0083258103032501042326C1102324B110E1
:10089C002326C1122324B112EFF09FDC832501041F
:1008AC00232AA10E13850500EFF01FD883258103A1
:1008BC002328A10E1305010C2328A1021306000303
:1008CC002322C102EF00900583260101032641017A
:1008DC000327810283258103032501042322E10CD4
:1008EC002320B10C2326D10C2324B10C232AC10CB8
:1008FC002328B10C37061440232EC100232EC10C23
:10090C00232CB10C37061840232CC1002322C10E16
:10091C002320B10E37061C402320C1022326C10E12
:10092C002324B10E930520002322B104EFF0DFCF76
:10093C000326410283258103232EA10A1305810876
:10094C00232AA102EF00807D032881018327C101A6
:10095C008326010203278102032681038325410498
:10096C0003250104232601092324C108232AE108B5
:10097C002328C108232EF108232CC108B7072040D7
:10098C002322F10A2320C10A2326E10A2324C10AC7
:10099C00232AD10A2328C10AEFF01FC98325410459
:1009AC0013060500032501042322C108EFF0DFC75D
:1009BC0003264102832581032320A1081305010589
:1009CC002324A104EF008075032781020326C102B2
:1009DC008326C1038325010403258103232AE10413
:1009EC002328A104232ED104232CA1042326D106D1
:1009FC002324A106B706F0BF232ED106232CA10673
:100A0C008326410F0327010F13850500EFF08FE3B9
:100A1C000327010383250104032641048326010FC8
:100A2C008327C10B13850500EFF0DF9E03264103DE
:100A3C00832501040325410483264108EFF05F81DF
:100A4C00032581038325C103032601148326411446
:100A5C00EF00C005032681038326C103130705009D
:100A6C000325010493870500832541040328C10B4A
:100A7C00832841088322010813030100232053001B
:100A8C00EFF00FEA0325010483254104832681043A
:100A9C0003260108EFF09F8A2326A1040325C10435
:0C0AAC008320C1171301011867800000AF
:0C0AB80037070080B3C6E6006F00400066
:100AC400B7070080B3C8D50063C2081663EEB6004A
:100AD4003345C5003346A6003345C500B3C5D5002C
:100AE400B3C6B600B3C5D500139815001358580102
:100AF4009398160093D858016382081013071800BE
:100B0400131757016300070C33071841930250036E
:100B140063EAE20A13D845019396B600B3E6F600F9
:100B240093D6B6009395B500B3E5F50093D5B540DB
:100B340093020002637A570893080000630E0700CB
:100B4400B302E040B31856003356E600B3925600A1
:100B540033065600B3D6E6003305C500B332C500EC
:100B6400B385D50033B3D500B385550063140300B2
:100B740063F6550213062800131656016308060887
:100B84001316F501B3321001B308560013551500BE
:100B94009396F5013365D50093D515001308180015
:100BA4001318480163DE080013051500933215007D
:100BB400B385550093981800639408001375E5FFF6
:100BC400B38505016780000093080600130707FE3C
:100BD400630C0700B308E040B3981601B3D6E600EF
:100BE4003337C000B388E8003305D500B332D500ED
:100BF400B3855500E3F455FA6FF0DFF7E31408FC0E
:100C0400B3F5F500130500006FF0DFFB13081800BF
:100C140093154801130500006FF0DFFAE394E8FA36
:100C2400B705F87F130500006FF0DFF9B3C6F600CF
:100C340063E4B6026394B6006360A602B3C6F6002A
:100C44003345C5003346A6003345C500B3C5D500BA
:100C5400B3C6B600B3C5D5003388B500B388D60093
:100C64003707E0FFE37CE8FA1358580193D858019A
:100C7400638608103307184193026003E3E4E2F447
:100C84009303080013D845019396B600B3E6F60023
:100C940093D6B6009395B500B3E5F50093D5B500AA
:100CA4009302100063E4E210631C57001317F6016B
:100CB400135616009398F6013366160193D6160060
:100CC400930205003305C540B3B2A200B385D540F5
:100CD400B385554063080700933215001305F5FFEB
:100CE400B38555406384050A9392B50063C0021A24
:100CF400B32205003305A500B385B500B3855500BF
:100D04001357F7013305E5001307100093D21501BB
:100D1400639E020013074700939545009352C50153
:100D240013154500B38555006FF05FFE9392B5002F
:100D340063C0020213071700B32205003305A500A0
:100D4400B385B500B38555009392B500E3D402FE94
:100D540013860300637CC7003308E8401308F8FFD8
:100D640013184801B38505016FF0DFE59355B8000A
:100D74009395F501130500006FF0DFE4E31408E434
:100D840013050000930500006FF0DFE33366E50010
:100D9400E30A06E2B7081000E37C15F593050500A5
:100DA40013050700130700026FF01FFA93020002F5
:100DB40063445706630A5704130707FEB302E0406F
:100DC4003353E600B31856003396560033066600D4
:100DD400B3D6E600B3381001B3E8C8001306000028
:100DE400930205003305D540B3B2A200B385554044
:100DF4003307104163020706933215001305F5FF0C
:100E0400B38555406F00400593080600138606001D
:100E1400930600006F00C001B302E0403353E600C4
:100E2400B31856003396560033066600B3D6E60070
:100E3400930205003305C540B3B2A200B385D54083
:100E4400B3855540330710416308070093321500FA
:100E54001305F5FFB38555409398C5009392B500EB
:100E640063C602021308F8FFB32205003305A50088
:100E7400B385B500B3855500B32207003307E700F7
:100E840033055500B3325500B38555001308F8FFF8
:0C0E940013184801930807006FF0DFD02E
:100EA000B708008033C8D500B37E18013387B5007A
:100EB000B387D6003708E0FF6370071B63F2071D96
:100EC00013575701630C071C93D757016388071CFE
:100ED0009396B600B3E6160193D6B6009395B50087
:100EE000B3E51501135855011315B500B385050178
:100EF000330FF70093020000130300009303000078
:100F0000130E0000930F0002130700009308000067
:100F100093070000137816001356160063000802AA
:100F2000B382A20033B8A200B38808013303B30030
:100F30003338B300B3870701B383E30033A8050058
:100F40003307E7003307070133280500B385B500F1
:100F5000B385050113151500938FFFFFE39C0FFA6E
:100F60003303130133381301B383F300B383030155
:100F7000930F5001930800009307000013F8160028
:100F800093D61600630008023303B3003338B3006E
:100F9000B3880801B383E30033B8E300B3870701E4
:100FA000330EAE00332807003305A50033050501D5
:100FB00033A805003307E7003307070193951500B1
:100FC000938FFFFFE39C0FFAB383130133B8130130
:100FD000330EFE00330E0E01B33250003363530064
:100FE000130803001385030093050E0013070F0079
:100FF0009392B50063C20202B322080033080801CD
:10100000332305003305A50033055500B385B5002E
:10101000B38565001307F7FF9307F03F3307F740E9
:10102000634E0706939717006354F706131747019B
:10103000B385E500635E080013051500133615003F
:10104000B385C50013181800631408001375E5FF75
:10105000B385D50167800000631E0701631C05008E
:10106000636AF80063E407016316060093D757012B
:1010700063900702B705F87F130500006780000042
:10108000E39A07FFE31806FE13575701E30407FE30
:10109000B705F07F130500006FF09FFB93850E00EE
:0410A0006FF09FFD51
:1010A400B707E0FF1397150063EEE70213971600E6
:1010B40063EAE70233E7D500131717003367A70085
:1010C4003367C700630C07003345C500B3C5D500BB
:1010D4003365B5003335A0006780000013050000B8
:0C10E4006780000013051000678000000A
:1010F00063F8A50013060500138505009305060097
:101100009307050013050000638E070013F717000F
:1011100093D71700630407003305B50093951500B6
:08112000E39607FE6780000062
:1011280013070500630C06089316E501638C060097
:101138002300B500130515001306F6FFE31606FE97
:101148006F00C00793F5F50F93968500B3E5D500BA
:1011580093960501B3E5D50093060002636AD602AB
:101168002320B5002322B5002324B5002326B5008B
:101178002328B500232AB500232CB500232EB5005B
:101188003305D5003306D640E37CD6FC6308060257
:1011980093064000636CD6002320B5003305D500C4
:1011A8003306D640E37AD6FE630A06002300B5006C
:1011B800130515001306F6FFE31A06FE13050700CC
:0411C800678000003C
:1011CC003705008013058500B71500809385858051
:0811DC00B385A5406F0040132C
:1011E400130101FC23201100232251002324610058
:1011F400232671002328A100232AB100232CC10037
:10120400232ED1002320E1022322F102232401030F
:10121400232611032328C103232AD103232CE1030A
:10122400232EF10373252034F325103437130020C3
:1012340013038328E700030073101534832001008F
:1012440083224100032381008323C100032501017C
:1012540083254101032681018326C101032701025D
:1012640083274102032881028328C102032E01033C
:10127400832E4103032F8103832FC1031301010430
:0412840073002030A3
:041288006F000000F3
:04128C006780000077
:1012900003A741809307F50093F787FF9306F0FFBC
:1012A00013050000930500006314070263000502A4
:1012B00003274500B386F6403307F7402322E500B5
:1012C0003305D5002320F500130585006780000055
:1012D00003264700032807006310F602638A05000F
:1012E00023A005012320F700130587006780000075
:1012F00023A201816FF01FFF63F8C7006376D60059
:10130000930606001305070093050700130708005E
:041310006FF09FF9E2
:101314009307700063F8B70023A2A180232005007F
:081324002322B50067800000E0
:10132C00F327003013F777FF7310073093F787001C
:08133C0023A0F180678000008E
:1013440083A7018063880700F327003013E7870031
:081354007310073067800000F0
:10135C00130101FE232E11002326A100EFF05FFCE8
:10136C000325C100EFF01FF22326A100EFF0DFFCF4
:10137C008320C1010325C100130101026780000015
:10138C00032504008325440013048400638A0500AC
:10139C0023000500130515009385F5FFE39A05FE60
:0413AC006780000056
:1013B0008C1300200000008008000000CC110020E9
:0413C00044000020C5
:0400000520000000D7
:00000001FF
